:020000040000FA
:10000000831685010030850086010030860083124A
:1000100000308600850003018C008D009100920065
:1000200028308E000130900032308F0032308C004A
:10003000123084000030212032308C0012308400D5
:100040002720840A80008C03031D212808002E200D
:100050003D203120342037203A2027280518432816
:10006000080085185028080005195E280800851921
:100070006B280800051A78280800861885280800CB
:100080008518932808000518432824308D00840A19
:1000900080000D088C030C080E020319BE20080016
:1000A00085185028030100308D00840A80000D0857
:1000B0008C030C080E020319BE20080005195E28E7
:1000C00018308D00840A80000D088C030C080E0285
:1000D0000319BE20080085196B2804308D00840A9E
:1000E00080000D088C030C080E020319BE200800C6
:1000F000051A782820308D00840A80000D088C03B2
:100100000C080E020319BE2008008618852840300E
:1001100086000C080F02031998200E08100203191C
:10012000B020CF20080086189328003086002720B2
:1001300045207A2060206D20522045207A207A20A8
:1001400045206D20452060206D207A2045205220DA
:100150006D2045204520602045206020B02008000B
:1001600032308C0012308400840A00088D00860032
:10017000C120C1208C0303190800B4282830900046
:100180000800C830C5286430C5289200F9309100B5
:1001900000004020910BC828920BC6280800403070
:0401A00086000800CD
:02400E00F13F80
:00000001FF
